:100000000C942A000C9447000C9447000C94470071
:100010000C9447000C9447000C9447000C94470044
:100020000C9447000C9447000C9447000C94470034
:100030000C9447000C9447000C9447000C94470024
:100040000C9447000C9447000C9447000C94470014
:100050000C94470011241FBECFE5D8E0DEBFCDBF12
:1000600010E0A0E6B0E0ECECF0E002C005900D92EC
:10007000A036B107D9F710E0A0E6B0E001C01D92AC
:10008000A036B107E1F70E9449000C9464000C947B
:1000900000008FEF81BB929A939A909A8FEF91EE26
:1000A000A4E081509040A040E1F700C0000090988B
:1000B000959A8FEF91EEA4E081509040A040E1F737
:0C00C00000C000009598E9CFF894FFCF35
:00000001FF
